:020000040800F2
:1000000048070020450100082D1B000821130008A7
:10001000291B0008050D00087129000800000000D8
:10002000000000000000000000000000A522000801
:10003000B10E00080000000055210008B923000897
:100040005F0100085F0100085F0100085F01000810
:100050005F0100085F0100085F0100085F01000800
:100060005F0100085F0100085F0100085F010008F0
:100070005F0100085F0100085F0100085F010008E0
:100080005F0100085F0100085F0100085F010008D0
:100090005F0100085F0100085F0100085F010008C0
:1000A0005F0100081D2400085F0100085F010008CF
:1000B00081240008BD2400085F0100085F010008DA
:1000C0005F0100085F0100085F0100085F01000890
:1000D0005F01000845270008612700085F0100084C
:1000E0005F0100085F0100085F0100085F01000870
:1000F0005F0100085F0100085F0100085F01000860
:100100005F0100085F0100085F0100085F0100084F
:100110005F0100085F0100085F0100085F0100083F
:100120005F0100085F0100085F0100085F0100082F
:10013000DFF80CD000F0DCFB004800471D3700085A
:10014000480700200648804706480047FEE7FEE7CC
:10015000FEE7FEE7FEE7FEE7FEE7FEE7FEE7FEE777
:10016000BD2300083101000840EA01039B0703D0CA
:1001700009E008C9121F08C0042AFAD203E011F8E6
:10018000013B00F8013B521EF9D27047D2B201E0A8
:1001900000F8012B491EFBD270470022F6E710B58C
:1001A00013460A4604461946FFF7F0FF204610BDE5
:1001B000421E12F8013F002BFBD111F8013B02F85F
:1001C000013B002BF9D1704730B505462A460B4656
:1001D00012F8010B13F8014B08B1A042F8D01CB182
:1001E000002802D06D1CF1E7284630BDCAB2401E7F
:1001F00010F8011F8A4202D00029F9D1002070476F
:10020000421C10F8011B0029FBD1801A704710B561
:10021000044600E0401C0378002BFBD100E0401CAA
:10022000521E04D311F8013B0370002BF7D10021BB
:100230000170204610BD70B5064602F0B1FC04689E
:1002400005460A220021304600F02AF92C6070BDD4
:10025000F0B480EA0102D40F4200B2EB410F02D2A7
:100260000246084611464A0042D0C30DDDB2C1F332
:10027000C752AD1A202D35DAC1F3160141F4000240
:1002800004B15242C5F1200602FA06F12A41104497
:10029000B3EBD05F23D0C4B1012DA0EBC35009DC78
:1002A000F0BC4FF0004202EAC352DBB200F500009E
:1002B00000F037B9400000F1807000EBC350A0F1AE
:1002C000807040EAD170490009E0490841EAC071F4
:1002D000A0EBC35000F50000400800EBC350F0BC99
:1002E00000F016B96142012202EB4101001BF6E762
:1002F000F0BC704781F00041AAE780F00040A7E71A
:1003000080EA010210B502F00043400022D04A000A
:100310001FD0010E01EB1261C0F35600C2F356026A
:1003200040F4000042F40002A0FB022000047F39E8
:10033000140400D0401C50EA124001D44000491E71
:10034000C2B20C0604EBD010401C4008802A02D038
:1003500003E0002010BD20F00100002900DA002099
:10036000184310BD30B480EA010202F0004530F0BD
:10037000004221F0004013D090B1C30DD40DC2F360
:100380001601C0F31600E41A41F4000140F4000223
:100390007D34914201D3641C00E04900002C02DA54
:1003A00030BC002070474FF400000023914201D37D
:1003B000891A034340084FEA4101F7D151B19142F4
:1003C00002D14FF0004105E002D24FF0010101E0FF
:1003D0006FF0010103EBC450284430BC00F098B822
:1003E00096230022114600F09CB820F00040C10D79
:1003F000C0F3160040F400007F2901DA00207047A6
:10040000962903DCC1F19601C840704796398840AF
:10041000704730B50B46014600202022012409E038
:1004200021FA02F59D4205D303FA02F5491B04FAAD
:1004300002F52844151EA2F10102F1DC30BD2DE9C0
:10044000F05F0546002092469B4688460646814658
:1004500040241BE0284641464746224600F069FA00
:1004600053465A46C01A914110D3114618462246A7
:1004700000F050FA2D1A67EB01084F462246012082
:10048000002100F047FA17EB00094E41201EA4F1AD
:100490000104DFDC484631462A464346BDE8F09F6A
:1004A0002DE9F04791460F4680460446002614F891
:1004B000015B2DB100F060FA0068405DC007F6D125
:1004C0002B2D02D02D2D18D0641E4A4639462046C9
:1004D00000F056FA27B13968A14201D1C7F800806F
:1004E00071054FF002040BD54042002803DD02F0F5
:1004F00057FB0460A007BDE8F08746F48066E4E798
:100500000028F8DA02F04CFB04606FF00040F2E7DC
:100510000029A8BF7047401C490008BF20F0010017
:10052000704710B4B0FA80FC00FA0CF050EA0104F5
:1005300004BF10BC704749B1CCF1200421FA04F487
:1005400011FA0CF118BF012121430843A3EB0C0160
:10055000CB1D4FEA00614FEA102042BF002010BCC3
:10056000704700EBC35010440029A4BF10BC704773
:10057000401C490008BF20F0010010BC70472DE965
:10058000FE4F804681EA0300C00F0C46009021F028
:10059000004123F00045B8EB0200A94105D24046D6
:1005A000214690461C460B46024623F0004010436D
:1005B00047D0270DC7F30A00C3F30A510290401A2F
:1005C000019040286BDAC3F3130040F4801B0098BD
:1005D000924620B10023D2EB030A63EB0B0B019888
:1005E0005946C0F14002504600F094F906460D46C7
:1005F00050465946019A00F0ACF910EB08006141F1
:10060000002487EA115284EAE7731A4340D0009A23
:1006100062B3019A012A4FEA075215DC001B61EB15
:1006200002014FF0004202EA0752CDE90042001CED
:1006300041F5801132462B4600F000FA03B0BDE8C8
:10064000F08F40462146F9E7001B61EB0201001CD8
:1006500041F5801300185B412018A2F5001747EB05
:10066000030140EAD570B6196D4111E06D084FEAFB
:10067000360645EAC0754FEA0752001B61EB0201DE
:10068000001C41F5801149084FEA30000019514122
:1006900032462B4603B0BDE8F04F00F0C0B90098D9
:1006A000012240000023D0EB020263EBE0730098CC
:1006B00021464FEAE074B8EB000061EB0401E9E782
:1006C00083F000435BE781F0004158E72DE9FE4FDE
:1006D00081EA030404F0004421F0004100944FF04B
:1006E000000B23F0004350EA01045ED052EA0304F9
:1006F0005BD0C3F30A54C1F30A552C44A4F2F3347B
:100700000194A0FB0254C1F3130141F48011C3F31F
:10071000130343F4801301FB024400FB034E840ADD
:10072000970A44EA815447EA8357A4FB0768029575
:100730008D0A05FB07854FEA932C04FB0C54270513
:10074000029D4FEA065847EA1637B5EB08056EEBEF
:10075000070C870E920E47EA811742EA8312A7FB25
:100760000201B6EB0B0164EB00042B0D43EA0C33E2
:100770005E1844EB1C50DA465146E7FB0201C5F314
:1007800013044FEA0B3343EA14534FEA0432019C3B
:1007900043EA0603A4F10C040294009CCDE900B4E2
:1007A00000F04CF903B0BDE8F08F00200146F9E7F6
:1007B0002DE9F04D81EA030404F0004B21F00045DF
:1007C00014464FF0000A23F0004150EA050220D001
:1007D00054EA01021DD0C5F30A570246C5F31303BC
:1007E000C1F31300C1F30A5640F4801543F480139B
:1007F000A7EB0608101BD64608F2FD3873EB050080
:1008000002D308F1010801E092185B41B8F1000F32
:1008100003DA00200146BDE8F08D00204FF480117E
:10082000064684460EE0171B73EB050705D3121B23
:1008300063EB050306434CEA010C49084FEA30001C
:1008400092185B4150EA0107EDD152EA030012D041
:1008500082EA040083EA0501084305D0101BAB417E
:1008600006D20122002306E000224FF0004302E0FE
:100870006FF0010253101AEB06004CEB085110EB1D
:100880000A0041EB0B01BDE8F04D00F0C8B8C1F320
:100890000A52C1F3130140F2FF3341F480119A422E
:1008A00002DA00200146704740F233439A42A2F236
:1008B000334202DC524200F03CB800F02BB800009A
:1008C00030B5041E71F1000404DB4FF000444042D7
:1008D00064EB0101141E73F1000405DB1C464FF0AC
:1008E0000043524263EB0403994208BF904230BD7B
:1008F000064C074D06E0E06840F0010394E807006D
:1009000098471034AC42F6D3FFF716FCD0380008F5
:10091000F0380008202A04DB203A00FA02F1002017
:1009200070479140C2F1200320FA03F3194390402D
:100930007047202A04DB203A21FA02F00021704798
:1009400021FA02F3D040C2F1200291400843194637
:100950007047202A06DBCB17203A41FA02F043EA1F
:10096000E07306E041FA02F3D040C2F12002914068
:10097000084319467047000000487047883800084F
:100980002DE9F05F82460078002715468B460AF174
:100990000104B946302801D09DB113E014F8010BD1
:1009A0000127782803D0582801D045B10AE00DB1BD
:1009B000102D07D10027102514F8010B02E008259F
:1009C00000E00A250026B0460EE005FB080005FB06
:1009D00006F1012701EB10461FFA80F8B6F5803FBB
:1009E00000D3B94614F8010B294600F075F8002829
:1009F000EBDABBF1000F05D00FB1641E00E05446E6
:100A0000CBF80040B9F1000F06D002F0C9F802217E
:100A10000160C81EBDE8F09F48EA0640FAE710B53D
:100A2000141E73F1000408DA401C41F10001921811
:100A30005B411A4301D120F0010010BD2DE9F04DBA
:100A400092469B4611B1B1FA81F202E0B0FA80F20F
:100A500020329046FFF75EFF04460F4640EA0A0048
:100A600041EA0B0153465A46084313D0114653EA54
:100A7000010019D0C8F140025046FFF75AFF054661
:100A80000E46504659464246FFF744FF084305D0FC
:100A9000012004E020463946BDE8F08D00200543E2
:100AA00046EAE0762C4337430A986305E40AA0EB54
:100AB00008000022FD0A44EA47540A3002D500200B
:100AC0000146E9E7010510196941DDE9084500190A
:100AD0006941BDE8F04DA2E73A2800D2303820F055
:100AE0002002412A01D3A2F13700884201D34FF0FE
:100AF000FF30704721B1826842F00102826003E05A
:100B0000826822F0010282607047000010B504463E
:100B10001248844208D10121401501F049FB00210F
:100B2000601501F045FB17E00D48844208D1012112
:100B3000001501F03DFB0021201501F039FB0BE011
:100B40000848844208D10121C80301F031FB00218B
:100B50004FF4004001F02CFB10BD000000240140C8
:100B600000280140003C0140014600208A6802F054
:100B700004020AB1012000E0002070470146C86C61
:100B800080B270470246002013680B400BB1012071
:100B900000E000207047014600208A6802F0080249
:100BA0000AB1012000E000207047000030B5024685
:100BB0000020002350680F4C20400D790C6844EA57
:100BC00005242043506090680B4C2040D1E902542A
:100BD0002C434D7944EA450420439060D06A20F4C8
:100BE00070000C7C641EE4B2234340EA0350D062E0
:100BF00030BD0000FFFEF0FFFDF7F1FFF0B5044649
:100C00000D4600200021092D11DDE068A5F10A063E
:100C100006EB4607072606FA07F18843A5F10A0600
:100C200006EB460603FA06F10843E0600CE0206993
:100C300005EB4507072606FA07F1884305EB45064D
:100C400003FA06F108432061072A0FDA606B561E8B
:100C500006EB86071F2606FA07F18843561E06EBA9
:100C6000860605FA06F10843606322E00D2A0FDAD2
:100C7000206BD61F06EB86071F2606FA07F188436E
:100C8000D61F06EB860605FA06F10843206310E03E
:100C9000E06AA2F10D0606EB86071F2606FA07F1A9
:100CA0008843A2F10D0606EB860605FA06F1084315
:100CB000E062F0BD816841F008018160704721B1B8
:100CC000826842F4A002826003E0826822F4A002FB
:100CD00082607047816841F00401816070470000C4
:100CE00030B10749096841F40001054A116005E087
:100CF0000349096821F40001014A116070470000AE
:100D00000824014000BFFEE710B500241548006824
:100D100020F07060134908600846006840F00060E9
:100D2000086004E0601CC4B2012002F0A9FC0E4877
:100D3000006808B1642CF5DB642C01DB012010BDD8
:100D4000002404E0601CC4B2012002F099FC0648B3
:100D5000006808B9642CF5DB642C01DB0120EEE7A8
:100D60000020ECE7040C01403881214208B5012144
:100D7000082001F00DFA4FF48040ADF8000010207B
:100D80008DF8030003208DF802006946064800F044
:100D900002FA4FF48041044800F08AFA00F068F843
:100DA000FFF7B2FF08BD0000000C014010B50024A1
:100DB00004E0601CC4B2012002F062FC0D4800682F
:100DC00008B1642CF5DB002404E0601CC4B20120EF
:100DD00002F056FC0748006808B9642CF5DB2820AF
:100DE00002F04EFC0348006808B1012010BD00204D
:100DF000FCE700003881214270B50024002506E0A0
:100E00006006040EFFF7D2FF0443681CC5B2082D2C
:100E1000F6DB204670BD7CB505460E4600F028F88E
:100E2000FFF772FFF8B9002405E0FFF7E5FF0DF8C2
:100E30000400601CC4B2052CF7DB9DF800009DF88F
:100E4000011008449DF8021008449DF8031008445E
:100E50009DF80410884208D19DF8000030709DF87C
:100E60000200287001E001207CBD0020FCE70000AA
:100E700010B50C48006820F070600A490860084608
:100E8000006840F0407008600020074908601420A6
:100E900002F0D0FB01200549C1F8B8011E2002F084
:100EA000EFFB10BD040C0140B881214200802142BB
:100EB0007047000010B5C8210348FFF76EF9002005
:100EC0000249088010BD00006000002024000020BE
:100ED00070B50546002400BF00F038F980B90DA1B7
:100EE0000E48FFF771F9044654B13A212046FFF746
:100EF0007DF9044614B1641C204670BD0020FCE757
:100F0000052002F097FB281EA5F101018DB2E3D167
:100F100000BFF2E74950442C0000000060000020B0
:100F200010B5FFF7C7FF26A1284801F0D1FD02E068
:100F3000642002F07FFB26A126A000F0B7F800286D
:100F4000F6D126A1214801F0C3FD02E0C82002F03D
:100F500071FB1FA124A000F0A9F80028F6D126A15A
:100F60001A4801F0B5FD02E0C82002F063FB18A1A9
:100F700025A000F09BF80028F6D126A1134801F027
:100F8000A7FD03E04FF4967002F054FB25A127A0C3
:100F900000F08CF80028F5D12CA10C4801F098FD48
:100FA00003E04FF4967002F045FB2DA12EA000F057
:100FB0007DF80028F5D137A1044801F089FD10BD66
:100FC0000D0A312E2041540D0A0000000038014066
:100FD0004F4B000041540D0A00000000322E204308
:100FE000574D4F44450D0A0041542B43574D4F4434
:100FF000453D330D0A000000332E20B8B4CEBBC4EB
:10100000A3BFE90D0A00000041542B5253540D0AAE
:1010100000000000342E20C1ACBDD3576946690DD5
:101020000A000000474F54204950000041542B4310
:10103000574A41503D224341574C222C22383332EB
:101040003439393935220D0A00000000352E20C10F
:10105000ACBDD3544350B7FECEF1C6F70D0A000025
:10106000434F4E4E4543540041542B434950535433
:101070004152543D22544350222C223138332E32D7
:1010800033302E34302E3339222C363030320D0AA4
:1010900000000000382E204553503832363620B339
:1010A000F5CABCBBAFB3C9B9A60D0A002DE9F04122
:1010B00004460D46C826FFF7FDFE2046FFF7A0F8C0
:1010C00087B23A4621460D4801F026FD0FE000F0B8
:1010D0003DF848B929460A48FFF776F820B1FFF7EE
:1010E000E9FE0020BDE8F0810A2002F0A3FA301EDC
:1010F000A6F10101CEB2EAD10120F3E7004400409D
:101100006000002030B589B004460D46FFF7D2FEDE
:101110002A4608A101A801F019FD0AA101A8FFF7BC
:10112000C5FF20B92A462146074801F0F5FC09B061
:1011300030BD000041542B43495053454E443D259A
:10114000640D0A003E000000004400400A48008888
:1011500008B9012070470848008808490988884272
:1011600003D1002004490880F4E7034800880349BC
:1011700008800120EEE70000240000202600002067
:1011800010B500240020FFF7A3FE044614B120464A
:1011900000F0AEFE10BD2DE9F0410246002500260C
:1011A000002000230024002791F803C00CF00F0555
:1011B00091F803C00CF0100CBCF1000F03D091F8B3
:1011C00002C04CEA050591F800C0BCF1000F31D017
:1011D000146800202BE04FF0010C0CFA00F3B1F87A
:1011E00000C00CEA03069E4220D183004FF00F0C92
:1011F0000CFA03F7BC4305FA03FC4CEA040491F82B
:1012000003C0BCF1280F06D14FF0010C0CFA00FC12
:10121000C2F814C00AE091F803C0BCF1480F05D130
:101220004FF0010C0CFA00FCC2F810C0401C08285A
:10123000D1D31460B1F800C0BCF1FF0F34DD5468A5
:1012400000202EE000F1080C4FF0010808FA0CF322
:10125000B1F800C00CEA03069E4221D183004FF092
:101260000F0C0CFA03F7BC4305FA03FC4CEA040428
:1012700091F803C0BCF1280F05D100F1080C08FA61
:101280000CF8C2F8148091F803C0BCF1480F07D1E4
:1012900000F1080C4FF0010808FA0CF8C2F81080B1
:1012A000401C0828CED35460BDE8F08141617047EE
:1012B000016170472DE9F05F07460C460025A846FE
:1012C000002608E0384601F023FA0544012002F028
:1012D000B1F9701CC6B2A642F4DBB5FBF4F948467E
:1012E000FFF77EF8804641460948FFF703F883463A
:1012F0000849FFF737F882460749FFF701F88146AA
:10130000FFF773F80549087008460078BDE8F09FBC
:1013100000C07F4500C04D450000C84200000020CD
:1013200000BFFEE710B502F063F900F000FC41F6E3
:101330001F4142F20F7001F0F3F84FF4E13001F079
:1013400019FB4FF4E13001F06DFB00F011F801F0F2
:1013500093F9FFF70BFD00F063F8FFF7E1FD00BF25
:1013600000F02EFC0028FBD100F032F810BD000088
:1013700008B50121182000F00BFF4FF40050ADF824
:10138000000010208DF8030003208DF8020069464C
:101390000D48FFF700FF4FF400510B48FFF788FF9F
:1013A0004FF4C070ADF8000010208DF8030003204A
:1013B0008DF8020069460548FFF7EDFE4FF4C07155
:1013C0000248FFF775FF08BD00100140000C014006
:1013D00010B54FF400510248FFF768FF10BD000040
:1013E0000010014070B50024002508E0002001F045
:1013F0008FF90444052002F01DF9681CC5B20A2DBE
:10140000F4DB0A20B4FBF0F4B4F57A6F01D94FF4A1
:101410007A642820B4FBF0F0C0F16400C0B270BD63
:1014200008B50121042000F0B3FE0120ADF8000052
:1014300000208DF8030069460248FFF7ACFE01F07A
:101440001BF908BD0008014010B50446207B0128A7
:1014500002D1206802F03AF9002020606060A060AC
:10146000207310BD0246002301230DE002F07F002F
:101470000870D2092AB1087840F080000870491C31
:1014800001E0184670475B1C042BEFDD4FF0FF3086
:10149000F8E770B504460E460025206898B901208B
:1014A0002073304602F078F920602068E0B1002017
:1014B0006060A66003E00020216848556D1CA068AC
:1014C000A842F8D810E00220207303E00020216831
:1014D00048556D1CA068A842F8D800206060A0683C
:1014E000B04201D20020206070BD00002DE9FF5FF6
:1014F00007460D4690463846FEF782FE86B22846DD
:10150000FEF77EFE1FFA80FA4FF00009B01D02F0D0
:1015100043F904461CB9012004B0BDE8F09FB11D99
:101520002046FEF73AFE12A0016821608088A08064
:10153000324639462046FEF76AFE2846FEF760FE30
:1015400083460120002100915B462A46CDE902082E
:10155000019121460A2000F05FF910B94FF000090F
:1015600001E04FF00109204602F0B0F84846D3E709
:1015700024637273702F00002DE9FF4F83B0824601
:101580008B469146159C0025002002900F27019064
:101590004846FEF735FE0FFA80F8B9F1000F03D187
:1015A000012007B0BDE8F08F08F10200384487B28F
:1015B000109808B145F00205129878B145F004057D
:1015C0001298FEF71DFEC0B202901398FEF718FEA7
:1015D00001460298001D0844384487B2119820B192
:1015E000012804D0022808D104E000BF07E045F03C
:1015F0000C0504E045F0140501E00220D1E700BF2E
:10160000149808B145F02405BAF1000F02D0BBF1DF
:10161000000F01D10320C4E745F0C0055046FEF796
:10162000EFFD06465846FEF7EBFD3044001D3844FA
:1016300087B239462046FFF72CFF206808B90420FE
:10164000AFE739462068FEF7A8FD10216268501CFC
:10165000606020688154D4E90023D118781FFFF717
:1016600001FF00B201900198002804DA2046FFF73C
:10167000EBFE052095E76168019808446060002151
:101680006268501C60602068815404216268501CAC
:101690006060206881544D216268501C6060206841
:1016A000815451216268501C60602068815454212B
:1016B0006268501C6060206881546268501C6060E1
:1016C0002068815404216268501C60602068815445
:1016D0006168481C6060206845540698010A626889
:1016E000501C6060206881540698C1B26268501C2A
:1016F000606020688154C8F307216268501C6060F4
:10170000206881546268501C6060206800F8028084
:10171000D4E90012881842464946FEF778FD606811
:101720004044606005F00400B8B30026139808B97F
:1017300038A013901298FEF763FD86B2310A6268F2
:10174000501C6060206881546268501C6060206892
:101750008654D4E90012881832461299FEF757FDD4
:101760006068304460601398FEF74AFD86B2310A23
:101770006268501C6060206881546268501C606020
:1017800020688654D4E90012881832461399FEF76F
:101790003EFD60683044606000BF05F08000C8B165
:1017A0005046FEF72DFD86B2310A6268501C60601B
:1017B000206881546268501C606020688654D4E9B7
:1017C0000012881832465146FEF721FD6068304409
:1017D000606000BF05F04000C8B15846FEF710FD3C
:1017E00086B2310A6268501C606020688154626869
:1017F000501C606020688654D4E900128818324674
:101800005946FEF704FD60683044606000BF002068
:10181000C7E60000000000002DE9F84F8046894629
:1018200093469A460D9C0027002500200090002634
:10183000B8F1000F02D10120BDE8F88F00250AE0C1
:1018400019F80500232803D019F805002B2801D129
:101850000220F1E76D1C19F805000028F0D146F0D0
:1018600030060B9808B146F0010605EB0A00871C0C
:101870000A9820B1012804D002280AD105E000BF4F
:1018800009E046F00206BF1C05E046F00406BF1C56
:1018900001E00320D0E700BFF91C2046FFF7F9FD67
:1018A000206808B90420C7E7F91C2068FEF775FC1A
:1018B0006168481C606020684654D4E900028118C1
:1018C0003846FFF7CFFD00900098002804DA204644
:1018D000FFF7BAFD0520AFE7616800980844606033
:1018E000C5F307216268501C6060206881546268FB
:1018F000501C606020688554D4E9001288182A467C
:101900004946FEF784FC6068284460600A9860B12C
:101910004FEA18216268501C606020688154626838
:10192000501C6060206800F80280BBF1000F09D0F5
:10193000D4E90012881852465946FEF768FC6068E0
:1019400050446060002077E72DE9FF4107460D46CF
:1019500090461E460A9C01200021CDE90001EB1CA7
:101960000A460FA1CDE902040A20FFF755FF88B906
:101970006168481C606020684654C5F307216268AE
:10198000501C6060206881546268501C6060206850
:10199000855403E0012004B0BDE8F0810020FAE79F
:1019A00024647000F0B504460D462646012300204D
:1019B0001060002114E0775C07F07F07106807FBD8
:1019C00003001060705C00F0800008B9481CF0BD96
:1019D000DB01B3F5001F02D36FF00100F7E7491CEC
:1019E000A942E8DB4FF0FF30F1E72DE9F8438046EC
:1019F0000C4615461E462F2108F10600FEF7F6FBA1
:101A000007460020009017B90120BDE8F8837F1C2D
:101A10006A46042108F10100FFF7C4FF252001F008
:101A2000BBFE2060206808B90220EEE7252120686F
:101A3000FEF7B3FB242239462068FEF795FB2437D6
:101A400000982C3830803188481C01F0A5FE2860B1
:101A5000286820B9206801F039FE0320D5E73288D4
:101A6000511C2868FEF799FB328839462868FEF732
:101A70007BFB0020C9E701464878022801D00120FD
:101A80007047887810B18878012801D1C878F7E7C5
:101A9000FF20F5E701464878022801D00120704771
:101AA000887820B9C8780A2801D10020F7E70120FA
:101AB000F5E70000F8B50446FF2720780511012D51
:101AC00001DB0E2D01DD3846F8BD032D24D10020A9
:101AD00000906A460421601CFFF764FF2044461C06
:101AE0000098022803D3207800F0010008B1FF20FD
:101AF000EAE77078317840EA0120801C009988423A
:101B000001D9FF20E0E706A1B01CFEF75DFB08B19C
:101B10000F2700E0032700E02F463846D4E70000F7
:101B2000246372657100000000BFFEE7704710B5C6
:101B30004FF4A06000F03AF810BD000070B500212D
:101B400000230F22C47804B3154C246804F4E06425
:101B5000C4F5E064210AC1F10403CA40447804FAE0
:101B600003F184781440214309010E4C0678A155F5
:101B7000047804F01F050124AC4005786D11AD0018
:101B800005F1E025C5F8004109E0047804F01F05DF
:101B90000124AC40044D0678761145F8264070BD0E
:101BA0000CED00E000E400E080E100E002490143C8
:101BB000024A1160704700000000FA050CED00E0D9
:101BC00030B58BB000200790089009900A9001254D
:101BD00033A1384800F07CFF37A03AA33BA23DA1D7
:101BE0000090344800F074FF07A80021029103918F
:101BF000CDE9041000916B022FA2019131A133A015
:101C0000FFF7BAFC002844D1089A91B20798FFF771
:101C100079FAFA20FFF75CF90446002C33D020460D
:101C2000FFF748FF02282ED12046FFF724FF0628A1
:101C300023D2DFE800F003090E13181D2DA11D4863
:101C400000F046FF00251DE02FA11A4800F040FFDC
:101C500018E034A1174800F03BFF13E03AA1154803
:101C600000F036FF0EE040A1124800F031FF09E01D
:101C700046A1104800F02CFF04E04FA10D4800F0F1
:101C800027FF00BF00BF07A8FFF7DEFBFFF712F931
:101C900003E050A1074800F01BFF28460BB030BD01
:101CA0004F6E654E45545F4465764C696E6B0D0A08
:101CB0000000000000380140383532383438373100
:101CC0003000000054303031000000003436373727
:101CD0003133000050524F49443A2025732C0941BA
:101CE0005549463A2025732C0944455649443A251E
:101CF000730D0A00546970733A09C1ACBDD3B3C9FE
:101D0000B9A60D0A000000005741524E3A09C1AC75
:101D1000BDD3CAA7B0DCA3BAD0ADD2E9B4EDCEF33F
:101D20000D0A00005741524E3A09C1ACBDD3CAA7B3
:101D3000B0DCA3BAB7C7B7A8B5C4636C69656E74E5
:101D400069640D0A000000005741524E3A09C1ACC7
:101D5000BDD3CAA7B0DCA3BAB7FECEF1C6F7CAA7F7
:101D6000B0DC0D0A000000005741524E3A09C1ACE8
:101D7000BDD3CAA7B0DCA3BAD3C3BBA7C3FBBBF216
:101D8000C3DCC2EBB4EDCEF30D0A00005741524E56
:101D90003A09C1ACBDD3CAA7B0DCA3BAB7C7B7A8CC
:101DA000C1B4BDD328B1C8C8E7746F6B656EB7C73F
:101DB000B7A8290D0A0000004552523A09C1ACBD2E
:101DC000D3CAA7B0DCA3BACEB4D6AAB4EDCEF30D75
:101DD0000A0000005741524E3A094D5154545F5089
:101DE00061636B6574436F6E6E65637420466169F1
:101DF0006C65640D0A00000010B5ADF5007D044669
:101E00004FF400716846FEF7C8F925A000882080CD
:101E10004FF400716846FEF7C0F92248427822A1CB
:101E2000684600F093FE69462046FEF7C1F94FF47C
:101E300000716846FEF7B1F91A4882781EA168461B
:101E400000F084FE69462046FEF7B2F94FF40071B7
:101E50006846FEF7A2F91348C2781BA1684600F055
:101E600075FE69462046FEF7A3F94FF400716846F7
:101E7000FEF793F90B48027918A1684600F066FE58
:101E800069462046FEF794F918A12046FEF790F91E
:101E90002046FEF7B5F9C0B20DF5007D10BD00007B
:101EA0007B00000028010020226661726D5F74656E
:101EB0006D70223A25642C00226661726D5F687530
:101EC0006D223A25642C0000226661726D5F6C6998
:101ED000676874223A25642C000000002266617253
:101EE0006D5F736F696C223A256400007D0000000D
:101EF0002DE9F04190B0804600200C900D900E909E
:101F00000F900B900A9009900025002600240027CE
:101F1000142101A8FEF741F94046FFF7CBFD054625
:101F2000042D25D00F2D2CD109AB0BAA0AA94046B0
:101F3000FFF75BFD0646D6B9BDF8240000902FA13F
:101F40003748DDE90A2300F0C3FD0CAADDE90A01E8
:101F5000FFF7CCFA58B933A1314800F0B9FD0D9A1A
:101F600091B20C98FFF7CEF80CA8FFF76DFA0BE0D2
:101F70004046FFF78FFD18B930A1294800F0A8FDB1
:101F800002E04FF0FF3600BF00BFFEF793FF701C6A
:101F900010B910B0BDE8F0813A210B98FEF726F990
:101FA0000446ECB1701CD8B1641C05E014F8012B98
:101FB00038467F1C06A90A542078302802DB207896
:101FC0003928F3DD05E014F8012B38467F1C06A9FB
:101FD0000A5420783928F6DC06A8FEF72CF90746C3
:101FE0000F2D01D0032D05D10A9801F06FFB0B983E
:101FF00001F06CFBFEF75EFF00BFCAE7636D64692A
:10200000643A2025732C207265713A2025732C20A8
:102010007265715F6C656E3A2025640D0A000000E0
:1020200000380140546970733A0953656E64204367
:102030006D64526573700D0A00000000546970737E
:102040003A094D515454205075626C69736820539D
:10205000656E64204F4B0D0A0000000030B5ADF5F1
:10206000057D00208190829083908490002400253B
:102070001EA1264800F02CFD4FF4007101A8FEF7C8
:102080008CF801A8FFF7B8FE044601AA20A11F485A
:1020900000F01EFD002C26D081A80323002221463B
:1020A00000901DA0FFF750FCC8B908E001A8415DF1
:1020B000829A501C829081988154681C05B2A54276
:1020C000F4DB829A91B28198FFF71CF815A10F48B2
:1020D000829A00F0FDFC81A8FFF7B6F903E015A194
:1020E0000A4800F0F5FC0DF5057D30BD54697073AC
:1020F0003A094F6E654E65745F53656E6444617452
:10210000612D4D5154540D0A00000000003801406B
:1021100025730D0A00000000383532383438373165
:102120003000000053656E64202564204279746598
:10213000730D0A005741524E3A094D5154545F4EA7
:102140006577427566666572204661696C65640DE7
:102150000A0000007047000001460020034A506852
:1021600020F44040084350607047000000100240D7
:1021700029B1064AD2690243044BDA6104E0034AFA
:10218000D2698243014BDA617047000000100240BF
:1021900029B1064A92690243044B9A6104E0034A5A
:1021A00092698243014B9A6170470000001002401F
:1021B00029B1064AD2680243044BDA6004E0034ABC
:1021C000D2688243014BDA60704700000010024081
:1021D00030B500210022002400232D4D6D6805F04C
:1021E0000C0121B1042905D0082923D105E0294D8E
:1021F000056022E0274D05601FE0254D6D6805F460
:102200007012234D6D6805F48034022505EB92426F
:102210001CB9214D554305600BE01D4D6D6805F45B
:1022200000351DB11C4D5543056002E0194D554365
:10223000056002E0174D056000BF00BF144D6D68DA
:1022400005F0F0010909154D6B5C0568DD4045603E
:102250000F4D6D6805F4E061090A104D6B5C45682F
:10226000DD4085600A4D6D6805F46051C90A0B4D6B
:102270006B5C4568DD40C560054D6D6805F4404107
:10228000890B074D6B5CC568B5FBF3F5056130BD87
:102290000010024000127A0000093D0028000020D2
:1022A00038000020704710B500F002F810BD0000A3
:1022B0000CB50020019000903348006840F4803055
:1022C0003149086000BF3048006800F400300090D9
:1022D0000198401C0190009818B90198B0F5A06FC2
:1022E000F1D12948006800F4003010B101200090BD
:1022F00001E0002000900098012843D123480068A5
:1023000040F01000214908600846006820F00300F2
:1023100008600846006840F0020008601A484068FB
:10232000194948600846406848600846406840F4DB
:10233000806048600846406820F47C104860084689
:10234000406840F4E81048600846006840F080703B
:10235000086000BF0C48006800F000700028F9D049
:102360000948406820F00300074948600846406873
:1023700040F00200486000BF0348406800F00C00D5
:102380000828F9D10CBD00000010024000200240D6
:10239000042808D14FF0E021096941F004014FF011
:1023A000E022116107E04FF0E021096921F004010A
:1023B0004FF0E022116170477047000010B51348DC
:1023C000006840F001001149086008464068104963
:1023D00008400E494860084600680E4908400B490D
:1023E00008600846006820F48020086008464068BD
:1023F00020F4FE0048604FF41F008860FFF753FF91
:102400004FF000600449086010BD00000010024059
:102410000000FFF8FFFFF6FE08ED00E010B5012117
:10242000124800F0BCF800B30121104800F0A8F8F1
:102430000F480078401C0E4908700E480078401C78
:102440000C49087008460078012804D10A49086040
:1024500000200849087006480078022805D10120AC
:102460000649086000200249087010BD002C014098
:102470000600002007000020200000201C00002093
:1024800010B50121880700F08AF890B10121880772
:1024900000F076F807480078401C064908700846A6
:1024A0000078052805D10120034908600020014972
:1024B000087010BD050000201000002010B501219B
:1024C000124800F06CF800B30121104800F058F8F1
:1024D0000F480078401C0E4908700E480078401CD8
:1024E0000C4908700A480078012804D10A4908609C
:1024F00000200749087007480078052805D1012009
:102500000649086000200349087010BD000400401F
:102510000800002004000020180000200C0000200B
:102520007FB505460C4601210220FFF721FEADF8DC
:102530000850ADF804400020ADF80A00ADF80600E0
:1025400001A90E4800F046F8012211460B4800F0A0
:1025500037F81D208DF8000001208DF801000320C0
:102560008DF8020001208DF803006846FFF7E6FAB7
:102570000121024800F007F87FBD00000004004080
:10258000CA430282704721B1028842F001020280F0
:1025900004E002884FF6FE731A400280704730B59F
:1025A0000246002000230024158A05EA01039589CC
:1025B00005EA010413B10CB1012000E0002030BD98
:1025C0001AB183890B43838102E083898B43838122
:1025D00070470000002202881D4B98420ED01D4B10
:1025E00098420BD0B0F1804F08D01B4B984205D0D9
:1025F0001A4B984202D01A4B984204D14FF68F736F
:102600001A404B881A43174B984207D0164B9842F2
:1026100004D04FF6FF431A40CB881A4302808B88C0
:1026200083850B8803850A4B98420BD0094B98424F
:1026300008D00E4B984205D00D4B984202D00D4B5E
:10264000984201D10B7A03860123838270470000F0
:10265000002C01400034014000040040000800400C
:10266000000C0040001000400014004000400140F9
:10267000004401400048014000B587B001214FF4FB
:102680000170FFF785FD0320ADF8180000208DF8DC
:102690001B0003208DF81A0006A91B48FEF77BFDDE
:1026A0004FF40040FFF758FD1848FEF72FFA0020BE
:1026B00001908DF808008DF809004FF46020039018
:1026C0000020049001208DF8140001A90F48FEF7A6
:1026D0006DFA0120FEF704FB01210C48FEF70AFA0F
:1026E0000A48FEF7E7FA00BF0848FEF754FA002848
:1026F000FAD10648FEF7EEFA00BF0448FEF734FAB6
:102700000028FAD107B000BD0008014000240140B4
:1027100010B504460723012221460948FEF76EFA48
:1027200001210748FEF7CBFA00BF02210448FEF75B
:1027300029FA0028F9D00248FEF720FA10BD00005F
:102740000024014010B540F22551044800F050F833
:1027500018B12021014800F029F810BD00380140CF
:1027600010B540F225510E4800F042F8B0B10D48C6
:102770000088C82802D300200A4908800848001DA4
:102780000088C1B2074802880088401C054B1880A9
:10279000054881542021024800F008F810BD0000CF
:1027A00000440040240000206000002001F400727A
:1027B000B2F5007F00D100BFCA430280704721B14B
:1027C000828942F40052828104E082894DF6FF73CF
:1027D0001A408281704702460020B1F5007F00D187
:1027E00000BF13880B400BB1012000E000207047B0
:1027F00070B50246002400230025002040F66A162A
:10280000B14200D100BFC1F3421501F01F03012600
:1028100006FA03F3012D02D19689334006E0022D1A
:1028200002D1168A334001E0968A33400C12012609
:1028300006FA04F41688344013B10CB1012000E00C
:10284000002070BDF0B503460024002600250020BE
:1028500040F66A17B94200D100BF1846C1F34214CE
:1028600001F01F06012707FA06F5012C01D10C30F3
:1028700004E0022C01D1103000E014301AB10768D6
:102880002F43076002E00768AF430760F0BD000018
:102890002DE9F04786B005460E460024A24600BF4B
:1028A000A1460027B08900B100BF2F462C8A4CF604
:1028B000FF700440F08804432C82AC894EF6F3107C
:1028C0000440B08831890843718908430443AC81CE
:1028D000AC8A4FF6FF400440B0890443AC8201A8A3
:1028E000FFF776FC1F48874202D1DDF810A001E017
:1028F000DDF80CA0A88900F4004040B10AEBCA0042
:1029000000EB0A1031684900B0FBF1F807E00AEB70
:10291000CA0000EB0A1031688900B0FBF1F86420AE
:10292000B8FBF0F004012009642101FB1089A8899B
:1029300000F4004040B1322000EBC900B0FBF1F0E0
:1029400000F00700044308E0322000EB0910642186
:10295000B0FBF1F000F00F0004432C8106B0BDE89D
:10296000F087000000380140C1F308028280704700
:1029700000BFFEE710B586B0044601210420FFF732
:1029800007FC01218803FFF703FC18208DF81700CE
:102990004FF40070ADF8140003208DF8160005A95F
:1029A0001E48FEF7F8FB04208DF817000002ADF872
:1029B000140003208DF8160005A91848FEF7EBFB5C
:1029C00001940020ADF810000C20ADF80E0000209E
:1029D000ADF80C00ADF80A00ADF8080001A91048E8
:1029E000FFF756FF01210E48FFF7E9FE012240F2F2
:1029F00025510B48FFF726FF25208DF80000012008
:102A00008DF8030000208DF8010002208DF80200EF
:102A10006846FFF793F806B010BD000000080140BB
:102A20000038014010B586B0044601210420FFF7AC
:102A3000AFFB01214804FFF79BFB18208DF817001E
:102A40000420ADF8140003208DF8160005A91E48D7
:102A5000FEF7A1FB04208DF817000820ADF8140044
:102A600003208DF8160005A91748FEF794FB019482
:102A70000020ADF810000C20ADF80E000020ADF8DD
:102A80000C00ADF80A00ADF8080001A90F48FFF7E7
:102A9000FFFE01210D48FFF792FE012240F2255171
:102AA0000A48FFF7CFFE26208DF8000001208DF8A0
:102AB000030000208DF801008DF802006846FFF742
:102AC0003DF806B010BD0000000801400044004081
:102AD0000FB430B5CBB0054601AC50A800904FF410
:102AE000947101A8009B4F9A00F044F800200090D8
:102AF0000BE014F8011B2846FFF736FF00BF40210A
:102B00002846FFF768FE0028F9D020780028F0D189
:102B10004BB030BC5DF814FB2DE9F04107460C4684
:102B2000154600260DE014F8011B3846FFF71CFF80
:102B300000BF40213846FFF74EFE0028F9D0701C38
:102B400086B2AE42EFDBBDE8F08100000FB4084B67
:102B500010B504A902AA039800F0F8F8044602A9E7
:102B6000002000F03FFD204610BC5DF814FB000083
:102B7000E53500087CB5044600201D4616460029B0
:102B80000BD0491ECDE90041044B6A462946304628
:102B900000F086F9009A002111707CBDCF35000845
:102BA000004870475C00002002E008C8121F08C1FE
:102BB000002AFAD170477047002001E001C1121FBE
:102BC000002AFBD1704700002DE9FF5F82B0002191
:102BD000DDE90430020DDDF840B0034318D044F6BF
:102BE0001050A2F2FF3242431514119801281FD051
:102BF000A5EB0B00401C5FEA000A4FF000064E4FA9
:102C0000DFF83891B046504615D5CAF1000413E0FC
:102C1000119801244AA3012801D16FEA0B010298FF
:102C2000119AC0E90031C0E9024206B0BDE8F09F48
:102C3000CBF10000DFE704460021404A491842EB8F
:102C40000450CDE9001012E0E00707D032463B46C1
:102C500040464946FDF73AFD8046894632463B46A6
:102C600010461946FDF732FD06460F466410002C4B
:102C7000EAD1DDE90401DDE90023BAF1000F06DA4B
:102C8000FDF724FD42464B46FDF720FD05E0FDF72C
:102C90008FFD42464B46FDF78BFD04460E46002253
:102CA000284BFDF70DFE03D84FF0FF30014607E03B
:102CB0000022254B20463146FDF761FCFDF7E7FD7C
:102CC000102409E0002C0ADB0A220023FDF7B7FBE1
:102CD000039B30321A55641E50EA0102F2D1641C83
:102CE000039AC4F111031444119A012A03D001225A
:102CF00008430DD10AE0084304D000204FF0110B27
:102D0000119072E7A3EB0B056D1E0DE05B4504DD32
:102D10004FF0000205F1010504E003DA4FF0000274
:102D2000A5F10105002AECD002981199C0E9023101
:102D3000C0E9004579E70000000014400000F03FC2
:102D4000300000000000F0430000E03F2DE9FF4F9D
:102D500089B09B460446002506E025280BD05A463C
:102D60000B999047641C6D1C20780028F5D10DB09C
:102D70002846BDE8F08F0027B8460122474900E009
:102D8000074314F8013F203B02FA03F00842F7D151
:102D900020782E2819D114F8010F47F004072A28AB
:102DA0000ED06FF02F022078A0F1300109290CD845
:102DB00008EB880102EB410100EB0108641CF2E71B
:102DC0000A98641C50F8048B0A9020780028CED012
:102DD000642808D0692806D075281ED05A460B9959
:102DE00090476D1C58E00A994FF00A0901C90A91F1
:102DF000002802DA40422D2102E0390504D52B21BA
:102E00008DF82010012103E0F90704D02021F7E715
:102E10008A4608AE0DE00021FAE70A994FF00A0948
:102E200001C90A91F7E74946FDF7F3FA303106F890
:102E3000011D0028F7D1ADEB060000F1200978074D
:102E400001D44FF00108C84502DDA8EB090000E0FD
:102E500000208046002706E008A85A46C05D0B996E
:102E600090476D1C7F1C5745F6DB04E030205A4626
:102E70000B9990476D1CB8F10001A8F10108F5DC31
:102E800005E016F8010B5A460B9990476D1CB9F1F5
:102E90000001A9F10109F4DC641C65E709280100BF
:102EA0002DE9FF4F95B09B468946064600250FE267
:102EB000252877D100242746F84A0121059400E00F
:102EC000044316F8013F203B01FA03F01042F7D10A
:102ED00030782A2811D06FF02F033078A0F130021B
:102EE000092A16D8059A44F0020402EB820203EB89
:102EF00042021044761C0590EFE759F8042B059226
:102F0000002A03DA504244F40054059044F00204CD
:102F1000761C30782E2816D116F8010F44F00404E0
:102F20002A280DD06FF02F023078A0F13003092B42
:102F300009D807EB870302EB4303C718761CF3E7B6
:102F400059F8047B761C30786C280FD006DC4C28AE
:102F500017D068280DD06A2814D104E0742810D046
:102F60007A280FD10DE044F400140AE044F48014F0
:102F700001E044F440147278824202D104F58014D6
:102F8000761C761C307866280BD013DC582877D056
:102F900009DC002875D04528F6D04628F4D047280B
:102FA0001AD19DE118E0632835D0642879D06528CE
:102FB00012D195E1702873D008DC6728F1D0692818
:102FC0006FD06E280DD06F2806D1B5E073282CD0B5
:102FD000752875D0782874D05A46179990476D1C7B
:102FE00075E1C4F30250022809D003280DD0D9F8A6
:102FF000001004280DD00D6009F1040967E1D9F82B
:103000000010EA17C1E90052F6E7D9F800100D8068
:10301000F2E70D70F0E719F8041B8DF8001000209E
:103020008DF80100EA46012003E059F804AB4FF0A7
:10303000FF3061074FF0000102D40DE008F10101FB
:103040008846B9420FDA8045F8DB1AF808100029E3
:10305000F4D108E008F1010188468142FADB1AF850
:1030600008100029F6D105985B46A0EB0807214619
:103070003846179A00F094FA284400EB080507E058
:103080004DE029E10DE01AF8010B5A4617999047D7
:10309000B8F10108F7D25B4621463846179A13E18A
:1030A00042E00A220092C4F302524FF0000A022AC0
:1030B00008D059F804CB032A4FEAEC710AD00DE08E
:1030C00029E02AE009F1070121F00702F2E802C134
:1030D000914609E00FFA8CFC4FEAEC71042A03D107
:1030E0004FFA8CFC4FEAEC71002907DA0A460021FE
:1030F000DCF1000C61EB02012D2202E0220504D577
:103100002B228DF80420012203E0E20701D02022C7
:10311000F7E7904659E00A2102E010220DE0102165
:103120004FF0000A00910BE010224FF0000A44F02B
:1031300004040827009203E008224FF0000A0092DE
:10314000C4F30252022A05D059F804CB0021032A05
:1031500008D009E009F1070121F00702F2E802C1F5
:10316000914605E01FFA8CFC042A01D10CF0FF0CFB
:103170004FF00008220728D5702806D0009B83F066
:10318000100353EA0A0305D00EE040228DF8042014
:10319000012208E05CEA010206D030228DF804200A
:1031A0008DF8050002229046009B83F0080353EA45
:1031B0000A030AD15CEA010201D1620705D5302277
:1031C0008DF804204FF001087F1E582804D034A049
:1031D00003900EA802900DE036A0F9E75346604632
:1031E000009AFDF72CF984460398825C0298401EF1
:1031F000029002705CEA0100F0D1029806A9081A58
:1032000000F1200A600702D524F4803400E0012791
:10321000574502DDA7EB0A0000E0002000EB0A01A1
:10322000009005984144401A0590E00306D45B469F
:103230002146179A059800F0B3F90544002706E0E7
:1032400001A85A46C05D179990476D1C7F1C4745E1
:10325000F6DBE0030CD55B462146179A059800F093
:103260009FF9054404E030205A46179990476D1C99
:103270000099481E00900029F5DC08E002980299A8
:103280005A460078491C0291179990476D1CBAF173
:103290000001AAF1010AF1DC65E100000928010042
:1032A00030313233343536373839616263646566BC
:1032B000000000003031323334353637383941427E
:1032C000434445460000000000F058F90544761CD0
:1032D000307800287FF4ECAD19B02846BDE8F08FB7
:1032E000620700D4062709F1070222F0070CFCE868
:1032F0000223E14603F000485FEA080C02D00FF217
:10330000702C0DE05FEA045C02D50FF2682C07E038
:103310005FEAC47C02D00FF2602C01E0AFF2700CC7
:103320004FF0FF3823F00043CDF850C065280CD093
:1033300006DC452809D046281DD047283DD13DE070
:10334000662818D067287ED138E00021112F01DBD4
:10335000112000E0781CCDE9000106A90EA8FFF7B6
:1033600033FCDDE90F010E9A03910021009207F171
:10337000010A04914DE04FF000400097CDE90110A3
:1033800006A90EA8FFF720FCDDE90F0203920E9BB1
:1033900011990022DDF80CA00093049211B9791C58
:1033A00000EB010AB7EB0A0004D4C0F1FF3007F1CB
:1033B000010A0490AAEB0700019044E0012F00DA13
:1033C00001270021112F01DD112000E03846CDE951
:1033D000000106A90EA8FFF7F7FBDDE90F010E9A21
:1033E0000391002104910092BA4621070CD403995D
:1033F000514500DA8A46BAF1010F05DD009AAAF1BB
:103400000101515C302908D0B84202DA10F1040FF2
:1034100006DA0121CDE9011015E0AAF10101E9E781
:10342000002805DC049901440491AAEB000102E0A4
:10343000411C514500DD8A460499401A401C019008
:103440004FF000400290200704D40198504501DB62
:10345000CDF8048000208DF84F0002980DF14F0741
:10346000B0F1004F25D02B200E9002984FF00208AB
:1034700000280CDA404202902D200E9007E00A212D
:103480000298FCF7C6FF3031029007F8011DB8F131
:103490000001A8F10108F2DC02980028EFD1791EA2
:1034A0000E980870307800F0200040F0450007F8D2
:1034B000020D12A8C01B00F107081498007800B193
:1034C000012000EB0A01019801EBE07105984144ED
:1034D000401A401E0590E00306D45B462146179A29
:1034E000059800F05DF805441498007818B15A4624
:1034F000179990476D1CE00324D55B462146179A27
:10350000059800F04DF805441CE00498002807DBFE
:10351000DDE90301884203DD0098405C179901E072
:10352000179930205A469047049805F10105401C30
:1035300004900198401E019004D12E205A461799FC
:1035400090476D1CBAF10001AAF1010ADDDC05E02B
:1035500017F8010B5A46179990476D1CB8F10001F6
:10356000A8F10108F4DC5B462146179A0598ABE602
:103570002D0000002B000000200000002DE9F0418C
:10358000044600251E461746880404D405E0394643
:103590002020B0476D1C641EF9D52846BDE8F08197
:1035A0002DE9F041044600251E469046C80301D58A
:1035B000302700E02027880404D505E0414638463E
:1035C000B0476D1C641EF9D52846BDE8F0814A68F5
:1035D000002A06D00A68531C0B6010704868401E11
:1035E000486070470A68531C0B60107070470000F9
:1035F00010B56FF00400FEF7CBFE0A4800680A49D8
:10360000B0FBF1F0094908700846007800EB400172
:10361000C1EBC0104FF6FF7101EAC00004490880F9
:1036200010BD00004000002000127A003C00002085
:103630003E0000200146114A12884A434FF0E02321
:103640005A6100229A611A46126942F001021A6117
:1036500000BF4FF0E022106900F001021AB100F43F
:103660008032002AF5D04FF0E022126922F00102E8
:103670004FF0E0231A6100229A6170473E0000205B
:103680000146114A12784A434FF0E0235A61002262
:103690009A611A46126942F001021A6100BF4FF0A6
:1036A000E022106900F001021AB100F48032002A11
:1036B000F5D04FF0E022126922F001024FF0E02332
:1036C0001A6100229A6170473C00002010B5002862
:1036D00021D0114B0022001F196803E0814203D85A
:1036E0000A4649680029F9D152B11368841A9C42EC
:1036F00004D1006818441060104602E0506000E0F9
:10370000186039B102680B1A934203D10B681A444E
:1037100002604968416010BD54000020FDF702FEC0
:1037200003E0FDF72DFD00F001F8FAE71CB51548A0
:103730000068E0B10A210120FDF7BCFD12490871C3
:10374000891C481EFDF767FBFDF74CFE0E49C8704B
:1037500008460079C978CDE900100B488378427893
:103760000A490B48FFF7B4F90020064908600948E8
:10377000006830B1FEF772FCFDF79CFB00200549A4
:1037800008601CBD18000020280100208C380008AB
:10379000003801400C000020F0B50B30154D20F032
:1037A00007010024144A0FE003688B420BD38B42BD
:1037B00005D95E1A43184768C3E9006700E043680B
:1037C000136002C004E0021D10680028ECD12046FE
:1037D000002802D1286808B10020F0BD064A074839
:1037E0001060074A121A22F00702C0E900240120E3
:1037F0002860D7E758000020540000204C0100202A
:10380000480300200040404040404040404041418B
:1038100041414140404040404040404040404040A5
:10382000404040404005020202020202020202023F
:10383000020202020220202020202020202020023C
:1038400002020202020290909090909010101010CC
:103850001010101010101010101010101010101068
:1038600002020202020288888888888808080808FC
:1038700008080808080808080808080808080808C8
:103880000202020240000000053800080D0A5469D7
:1038900070733A2020202020202020CEC2B6C8A35A
:1038A000BA256420202020CAAAB6C8A3BA2564205D
:1038B0002020B9E2D5D5A3BA256420202020CDC18F
:1038C000C8C0CAAAB6C8A3BA25640D0A0000000081
:1038D000F03800080000002060000000A82B00085D
:1038E0005039000860000020E8060000B82B0008EE
:1038F00000000000000000000000000000000000C8
:1039000000000000000000000000000000000000B7
:10391000000000000000000000000000010203049D
:10392000010203040607080902040608000000005B
:1039300000A24A040000000000000000010203048D
:103940000607080900000000000000000000000059
:0400000508000131BD
:00000001FF
